:020000040800F2
:10000000400C002035020008F9270008C31F000833
:10001000F5270008751A0008C73400080000000022
:10002000000000000000000000000000B12D0008EA
:10003000B51D000800000000412C0008C52E000876
:100040004F0200084F0200084F0200084F0200084C
:100050004F0200084F0200084F0200084F0200083C
:100060004F0200084F0200084F0200084F0200082C
:100070004F0200084F0200084F0200084F0200081C
:100080004F0200084F0200084F0200084F0200080C
:100090004F0200084F0200084F0200084F020008FC
:1000A0004F0200084F0200084F0200084F020008EC
:1000B0004F020008292F00084F0200084F020008D5
:1000C0004F0200084F0200084F0200084F020008CC
:1000D0004F020008353100084F020008BD3100080A
:1000E0004F0200084F0200084F02000800F002F81B
:1000F00000F090F80AA090E8000C82448344AAF132
:100100000107DA4501D100F085F8AFF2090EBAE82F
:100110000F0013F0010F18BFFB1A43F0010318473B
:10012000F463000014640000103A24BF78C878C15A
:10013000FAD8520724BF30C830C144BF04680C60ED
:10014000704700000023002400250026103A28BF35
:1001500078C1FBD8520728BF30C148BF0B60704739
:100160006E2900F05D81702900F09F82662904F0FD
:10017000C683652904F0C383672904F0C08361291D
:10018000AFF3008003681B0A28BF41F08001692992
:1001900000F00A81642900F00781752900F00481CC
:1001A0006F2900F02D82782900F06B82E92900F098
:1001B000C781E42900F0C481F52900F0C181EF294D
:1001C00000F02A82F82900F06A820368DB0928BF60
:1001D00041F08001632900F0EC85732900F0F1857E
:1001E000E32900F0FC85F32900F001860020704728
:1001F0001FB500F04DFE04000020002103F040FD7B
:10020000401C60600020002103F024FDE0601FBD61
:1002100010B510BD00F00FFE1146FFF7E9FF03F027
:100220009FFA00F0E7FE03B4FFF7F2FF03BC03F010
:1002300067F900000948804709480047FEE7FEE7E4
:10024000FEE7FEE7FEE7FEE7FEE7FEE7FEE7FEE786
:1002500004480549054A064B70470000C92E0008AE
:10026000ED00000840060020400C0020400800205F
:1002700040080020704700001CB50C46064B7B442C
:1002800069460090204600F0E4F8044600206946E4
:1002900000F0F2F820461CBDF701000010B5431C29
:1002A00002E010F8011B71B18107FAD14FF0013261
:1002B00002C88C1A8C4314EAC211F9D0C01A0A067B
:1002C00003D0C01E10BDC01A10BD0A0401D0801E8C
:1002D00010BD0902FCD0401E10BD7047704770472A
:1002E000704770B5044685690068C10601D530269F
:1002F00000E02026C00707D070BDD4E901213046B8
:100300009047206A401C20626D1EF6D570BD70B506
:10031000044685690078C00707D170BDD4E9012182
:1003200020209047206A401C20626D1EF6D570BDCB
:1003300009684A0501D540B27047C905FCD500B22D
:10034000704709684A0501D5C0B27047C905FCD598
:1003500080B2704770B50C460546012A05D0287852
:10036000800600D5EA69002302E0012305E05B1C5A
:10037000934202D2E05C0028F9D1A869E618C01ABD
:10038000A861286A184428622846FFF7AAFF04E0FB
:10039000D5E9012114F8010B9047B442F8D328465F
:1003A000FFF7B5FF70BD00002DE9F04106460024BF
:1003B00010687529314616A510D0FFF7B9FF00283F
:1003C00002DA404213A507E031688A0701D512A579
:1003D00002E0490704D511A5012401E0FFF7B1FFB0
:1003E00000210A2206F1240709E0B0FBF2FCB0FB71
:1003F000F2F302FB1C00303078541846491C0028E8
:10040000F3D123462A463046BDE8F04100F061BAF8
:10041000000000002D0000002B0000002000000064
:1004200011680268006A530501D508700AE0D30517
:1004300001D5088006E0130603D5C217C1E9000202
:1004400000E008600120704701694A1C02610878D9
:10045000704700B58FB0CDE9013100210591054904
:100460007944CDE903101146684600F029F90FB030
:1004700000BD0000E5FFFFFF0A6802F8010B0A60FB
:10048000704700002DE9FF5F15468A460446DFF8F5
:10049000AC80F8440027D8E900103E46CDE90010B2
:1004A00010E03AF816106A4602A800F0A4FC411CBD
:1004B00007D02178890603D5E269391891420DD811
:1004C0000744761C2078800602D5E069B84205DD35
:1004D000AE42E6DB3AF816000028E2D1A069C01B64
:1004E000A0612046FFF7FDFED8E90010CDE900101D
:1004F000002017E03AF818106A4602A800F07BFCCA
:10050000B0F1FF3F81460BD000250DF1080B05E04F
:10051000D4E901211BF8050090476D1C4D45F7D328
:1005200008F10100B0428046E4DB206A38442062D2
:100530002046FFF7ECFEBDE8FF9F0000A65F00002D
:100540002DE9F0418046D21D22F007020025D2E9B4
:100550000002F52915A614D0011E72F1000106DA79
:100560000023D0EB030063EB020211A608E0D8F8E9
:1005700000108B0701D50FA602E0490701D50EA692
:1005800001251146002408F1240704E000F05CF97D
:1005900030323A55641C50EA0102F7D12B463246FC
:1005A00021464046BDE8F04100F093B9000000004C
:1005B0002D0000002B0000002000000030B40021BE
:1005C00000F1240408E002F00705D208303542EAC1
:1005D0004372DB086554491C52EA0305F3D10468F1
:1005E000002310A2250708D504F020040C4304D0F2
:1005F000C46901230CA2641EC46130BC00F069B957
:1006000010B5044621461068FFF79BFE02462046BF
:10061000BDE810400023D1E7D21D22F00701D1E947
:100620000023CBE70000000030000000F0B40D46CE
:100630000188090502D5214C7C4402E01F4C7C4412
:100640000E34002100F1240608E002F00F07120921
:10065000E75D42EA03721B097754491C52EA03071B
:10066000F3D102780023120704D5702D06D009B10A
:10067000022311342246F0BC00F02BB901231034C0
:10068000F8E770B504460D4621461068FFF759FE9D
:10069000024629462046BDE870400023C6E7D21D29
:1006A00022F00703D3E90023C0E70368126843F090
:1006B000200303600823C3610023B7E7085E00003E
:1006C0002DE9F05F894604464FF0000ADFF874B167
:1006D000FB44C0F820A02046E1688847002874D079
:1006E000252806D0D4E901219047206A401C2062C9
:1006F000F1E700265F462046E16888472028054646
:1007000007DB312D05D2781910F8200C08B106430B
:10071000F1E7B00701D526F00406C4F81CA00027B5
:10072000C4F818A02A2D09D0284602F0E2FE38B3FA
:1007300004EB8708303DC8F8185019E059F8041B3D
:10074000204604EB87029161E1688847012F054646
:1007500018D1E069002820DA26F020061DE0D8F83C
:10076000180000EB800005EB40003038C8F8180096
:100770002046E1688847054602F0BBFE0028EED11E
:10078000012F0AD02E2D08D12046E16888477F1C12
:100790000546022F46F02006C4DBA069002803DAD4
:1007A000404246F00106A061F00701D026F0100695
:1007B0006C2D0BD0682D09D04C2D39D06A2D35D039
:1007C000742D35D07A2D33D016E038E0E1682F460D
:1007D00020468847B842054609D16C2F26D04FF4F1
:1007E0008060E168064320468847054604E06C2F98
:1007F0001AD04FF4807006430DB3A5F141001928BB
:1008000002D8203546F400664A462946204626602E
:100810004E46FFF7A5FC80B101280BD0F61D26F04F
:10082000070000F1080956E74020E4E78020D8E7F8
:100830000020D6E706F104094DE7284652E7206A72
:10084000BDE8F09F985D000030B5B0F10A024FEAB4
:10085000900E71F100034EEA817EB0EB0E0061EB69
:1008600091014FEA101E4EEA017E10EB0E0041EBA3
:1008700011114FEA102E4EEA016E10EB0E0041EB03
:1008800011214FEA104E4EEA014E10EB0E0041EBE3
:100890001141401841F100014FEAD00040EA417097
:1008A0004FEAD10110EB80054FEA810444EA9074CD
:1008B00044EB01046D1944EB0404521BA3414FF0B7
:1008C000000348BF0A3200D530BD401C41F1000191
:1008D00030BD2DE9F0470D4699469246044600F199
:1008E00024080168880604D5E06921F01001216020
:1008F00000E00120A84201DD471B00E00027A169BC
:100900007A1902EB0900081AA0612078C00602D407
:100910002046FFF7E6FC002608E0D4E901211AF89A
:1009200006009047206A401C761C20624E45F4DB8E
:100930002078C0060AD52046FFF7D3FC06E0D4E9AC
:10094000012130209047206A401C2062381EA7F108
:100950000107F4DC07E0D4E9012118F8050090470D
:10096000206A401C2062281EA5F10105F3DC204608
:10097000FFF7CDFC2078000602D50220BDE8F08705
:100980000120FBE770472DE9FF4F0C461E464FF054
:10099000FF378BB0D2E90001DDF860800A908A460B
:1009A000C1F30A5505B93D46002108464FF0000045
:1009B000BAF1000F00F4400005DA00EB80004FF4BC
:1009C000400101EA50004FEA9059B9F1010F00DDF2
:1009D000B9460A9850EA4A000ED044F61050A5F2E3
:1009E000FF3545432F14B8F1000F1ED07542291E64
:1009F0001EDDC9F100021CE0B8F1010F4FF000004C
:100A000001D0302103E0F24305E02154401CB04204
:100A1000FBDB30460022002121540B99C1F80880ED
:100A2000C1E900200FB0BDE8F08FBD1B6D1CDEE7F3
:100A30004A4600DA694206A800F06EFA06AB93E86F
:100A4000070003AB83E8070050460A9900F01CFB3F
:100A50008DE80700A0F500501F3800900398002D86
:100A600009DD42F21F014A46084403A90390684683
:100A700000F07BFD08E0A0F500504A461F3803A9AE
:100A80000390684600F085FD8DE807000004000C27
:100A900003D04FF0FF30410800E01046B8F1000FDE
:100AA00003D00022009215461EE0751E05D4FFF704
:100AB000CBFE303262556D1EF9D5B3460122084394
:100AC00002D000227F1C04E02078302801D10022CF
:100AD0007F1E002A099786D01DE0112D07DAFFF747
:100AE000B3FE303262556D1C50EA0102F5D1084365
:100AF00002D00098C8B10EE00021681E05E0235C1A
:100B0000625C63542254401E491C8142F7DBAB46B1
:100B1000A81B401E0990002004F80B000B98099AAE
:100B2000C0F80880C0E9002B7CE711264FF00008D0
:100B300059E72DE9F04F88460446D21D22F00701FF
:100B400091B0D1E90001CDE90A0102F0BEFC0246F4
:100B50000B98C00F01D02D2007E02068810701D538
:100B60002B2002E0202101EAC000032A099001D0D5
:100B7000072A05DB03464146204600F08DF90BE1CC
:100B80002078800601D5E06900E00620B8F1650F05
:100B9000814606D0B8F1660F18D0B8F1670F70D152
:100BA00031E00020B9F1110F009001DB112301E0C9
:100BB00009F101030AAA01A90CA8FFF7E4FEDDE987
:100BC0000C70002609F10105834647E001204B46E1
:100BD00000904FF000470AAA01A90CA8FFF7D3FE26
:100BE000DDE90DB00C995D46002610B909F1010050
:100BF0000D18B9EB050003D4C0F1FF3609F101056A
:100C0000A5EB09002BE0B9F1010F01DA4FF0010962
:100C10000020B9F1110F0090484601DD112300E0DA
:100C200003460AAA01A90CA8FFF7ADFEDDE90C7086
:100C30004D4600268346207800070AD4AB4500DAEB
:100C40005D4601A8012D04DD411911F8011C302970
:100C500007D04F4502DA17F1040F04DA012082466B
:100C60000FE06D1EEEE7002F02DCED1B3E4403E0BB
:100C7000781CA84200DD7D1CB81B00F1010A4FF072
:100C800000472078000703D4AA4501DB4FF0FF3A64
:100C90000021B7F1004F0DF143088DF8431024D027
:100CA00002202B23002F01DA7F422D230A21021E6E
:100CB000A0F1010000DC5FB197FBF1FC97FBF1F2C2
:100CC00001FB1C7C17460CF1300C08F801CDEEE757
:100CD000A8F1010003702188090501D5452100E034
:100CE0006521A0F1010800F8011C09980FA9A1EBEA
:100CF0000807FF1D00B10120411901EBEA70A1694D
:100D00003844081A401EA0612078C00602D420464C
:100D1000FFF7E7FA099828B1D4E901219047206A42
:100D2000401C20622078C00622D52046FFF7D9FA61
:100D30001EE0002E04DBB34502DD01A8805D00E06B
:100D40003020D4E901219047206A401C2062761CA3
:100D5000AAF101005FEA000A0AD100F099F8C06820
:100D60000168405CD4E901219047206A401C206260
:100D7000281EA5F10105DCDC07E0D4E9012118F803
:100D8000010B9047206A401C2062381EA7F1010722
:100D9000F3DC2046FFF7BBFA032011B043E610B5A1
:100DA000436913B1AFF3008001E0FFF7D3FA0120EC
:100DB00010BD127800F124010A7000224A7001224D
:100DC000EDE711684FF0FF32E9E710B5436913B161
:100DD000AFF3008001E0FFF755FB012010BD128842
:100DE00000F1240182840022C2840122EDE711680F
:100DF0004FF0FF32E9E770B516460C46054600F0A5
:100E00003FF8036893F80101012806D0FF2C0FD8A2
:100E1000185D68B101202C7070BDD3F8070132460F
:100E2000214603F2071303442846BDE870401847E3
:100E30004FF0FF3070BD754600F0E2F8AE46050099
:100E40006946534620F00700854618B020B5FFF7E5
:100E5000FFF9BDE820404FF000064FF000074FF0CB
:100E600000084FF0000B21F00701AC46ACE8C009C8
:100E7000ACE8C009ACE8C009ACE8C0098D467047D1
:100E800010B500F005F8001D10BD00BFF52D0000E5
:100E900000487047FC0500202DE9F0411F4604463C
:100EA00003260168072A01F4006004DB08B116A5D7
:100EB00005E016A503E008B115A500E015A521F091
:100EC00010002060A069C01EA0610FB1401EA0618B
:100ED0002046FFF706FA4FB1D4E901213846904782
:100EE000206A401C2062C01C206206E0206AFAE7EB
:100EF000D4E9012115F8010B9047761EF8D220465F
:100F0000FFF705FABDE8F0814E414E006E616E00BC
:100F1000494E4600696E66002DE9F0478146164647
:100F20008AB0334878440DC88DE80D0030487844C5
:100F3000801C03AC0DC884E80D0041F69B300844CA
:100F4000372190FBF1F290FBF1F5A5F1800501FB53
:100F500012041B3C02D56442012000E00020DFF8AF
:100F600090A080460027FA44AAF1BE0A0DE0E007EF
:100F700009D03246684607EB47010AEB810100F0D1
:100F800008FB8DE8070064107F1C002CEFD1184F80
:100F90007F44AC3F18E0E80714D007EB04100DF1D4
:100FA000180A90E80E008AE80E00C068F04201D1ED
:100FB00098190890324606A903A800F0EAFA03AB94
:100FC00083E807006D10641C002DE4D132466946A9
:100FD000B8F1000F03A802D000F0C7FA01E000F05A
:100FE000D8FAC9E90001C9F808200AB0BDE8F087BD
:100FF000D45500000446AFF300802046FFF713F9F4
:1010000000487047DC0500204FF0013C50F8042BED
:1010100051F8043B9A4221D1A2EB0C03934313EA0B
:10102000CC1317D150F8042B51F8043B9A4215D138
:10103000A2EB0C03934313EACC130BD150F8042B0F
:1010400051F8043B9A4209D1A2EB0C03934313EAF3
:10105000CC13DBD04FF00000704700BFD01A01BAAC
:10106000B1FA81F101F0180122FA01F0CB40C1F18F
:101070002001DBB2C0B2C01A2CFA01F3D11A91439D
:1010800011EAC311E6D170475FEA400C08BF91F046
:10109000000F4FEA8C234FEAC12243EA51514FEA35
:1010A0001C5018BF00F5F0404FEA300018BF41F067
:1010B00000415FEA6C5C00F02980BCF1FF3F08BF93
:1010C00040F080407047130C06BF12044FF0100C24
:1010D0004FF0000C130E04BF12020CF1080C130F9A
:1010E00004BF12010CF1040C930F04BF92000CF129
:1010F000020CD30F04BF52000CF1010C11464FF04B
:101100000002A0F11F00A0EB0C00704711F0004F8F
:1011100008BF704731F000413FF4D5AF0B0C06BF5C
:1011200009044FF0100C4FF0000C0B0E04BF090225
:101130000CF1080C0B0F04BF09010CF1040C8B0F10
:1011400004BF89000CF1020CCB0F04BF49000CF165
:10115000010CCCF12003A0EB0C0022FA03F302FAFD
:101160000CF241EA030100F10100704720F07F4CCE
:1011700080EA030023F07F47ACEB070303F57C53C1
:1011800000F0004003F1FF032DE980494FEA154BC1
:1011900009B44FEA144325EA0B4E24EA03480FF240
:1011A000042606EB132749083E785FEA320203FB68
:1011B0000667C7F5000707FB06F64FEA54374FEA04
:1011C000D64606F1020607FB066CCCF1005C4FEA3E
:1011D0001C472CEA074C07FB06F40CFB06F504EB56
:1011E00015464FEA961634BF00204FF000404FEAF4
:1011F000D13706FB07FC4FEA1C4C0CFB0BF7D21B4C
:1012000003FB0CF761EB07010CFB0EF7B0EB07409B
:1012100072EB17420CFB08F734BFA2EB0742B2EBAC
:10122000074261EB17414FEA0C444FEA910706FB76
:1012300007FC4FEA1C4C0CFB0BF7B0EBC74072EB02
:10124000573203FB0CF734BFA2EBC742B2EBC742E5
:1012500061EB57310CFB0EF7B0EBC70072EB577226
:101260000CFB08F734BFA2EBC702B2EBC70261EB7D
:101270005771039F4FEA816141EA921104EBCC045C
:101280004FEAD1374FEA826206FB07FC42EA90122E
:101290004FEA80604FEA1C4C0CFB0BF7D21B03FBA0
:1012A0000CF761EB07010CFB0EF7B0EB074072EB9C
:1012B00017420CFB08F734BFA2EB0742B2EB074220
:1012C00061EB17414FEA8C554FEA910704EB9C24E0
:1012D00006FB07FC4FEA1C4C0CFB0BF7B0EBC740BE
:1012E00072EB573203FB0CF734BFA2EBC742B2EBF1
:1012F000C74261EB57310CFB0EF7B0EBC70072EB46
:1013000057720CFB08F734BFA2EBC702B2EBC7025F
:1013100061EB577115EB4C254FEA816141EA92115F
:101320004FEA82624FEAD13742EA901206FB07FC8D
:1013300044F100044FEA80604FEA1C4C0CFB0BF7B1
:10134000D21B03FB0CF761EB07010CFB0EF7B0EBB4
:10135000074072EB17420CFB08F734BFA2EB0742C1
:10136000B2EB074261EB174115EB1C154FEA8131D7
:1013700041EA92414FEA823242EA90424FEA80309B
:101380004FEA0C7644F1000448EA03434EEA0B4866
:101390004FF0000EB2EB080C71EB030724BF62465E
:1013A00039464EEB0E0E4FF0000B001852414941EA
:1013B0004BEB0B0BB2EB080C71EB03077BF1000B53
:1013C00024BF624639464EEB0E0E4FF0000B00185C
:1013D000524149414BEB0B0BB2EB080C71EB03078D
:1013E0007BF1000B24BF624639464EEB0E0E51EAEC
:1013F000020718BF46F0010616EB0E7655F1000203
:1014000054F1000103D5BDE88901BDE80088BDE8BD
:101410008901BDE80048B619524141EB0101A3F131
:101420000103704780807F7E7D7C7B7A7978777638
:1014300076757473727171706F6E6E6D6C6C6B6AB1
:101440006A6968686766666564646363626161604F
:10145000605F5F5E5E5D5D5C5C5B5B5A5A595958CC
:101460005857575656555555545453535252525136
:10147000515050504F4F4F4E4E4D4D4D4C4C4C4B8C
:101480004B4B4A4A4A4949494848484747474746D3
:10149000464645454544444444434343434242420F
:1014A00042414141002B26D4770021D01CB54FEAA0
:1014B000370703B44FF010004FF010014FF0000059
:1014C0000FBCBDE810400BF1010BBBF1010F08BFD1
:1014D0005FEA170722BF12F1010211F101014FF07B
:1014E000004143F1000300F0004043EA0000704770
:1014F000F9D35708DAE746EA064613F1400F4FEAF8
:1015000016461FDD13F1200FDFBF16430A460021E8
:1015100020335B42C8D0C3F1200746EA064602FAF0
:1015200007F74FEA164646EA0706C3F1200722FAF4
:1015300003F201FA07F721FA03F14FF0000342EA40
:101540000702B1E746EA020646EA06464FEA1646B1
:1015500046EA0106BCBF46EA0646360C4FF00003D9
:101560004FF000024FF000019EE72DE9C04893467E
:1015700030B491E8380007C831EA400C48BF34EA7B
:10158000430C03D5FFF7F2FDFFF78CFFF0BCBDE87D
:1015900000882DE9C048934630B491E8380007C868
:1015A00010F0804F08BF13F0804F03D100F005F812
:1015B000FFF778FFF0BCBDE8008820F07F4780EAA5
:1015C000030023F07F4C07EB0C03A3F57C5300F0E2
:1015D0000040A3F1FE0392F0000F00F0B38095F0FD
:1015E000000F00F077802DE901494FEA11404FEAE2
:1015F000144621EA004800FB06FC24EA064708FBE3
:1016000006F607FB08F800FB07F718EB06484CEB5B
:10161000164C4FEA124B18EB07484FEA15464CEBB5
:10162000174022EA0B4E0BFB06FC25EA06470EFB91
:1016300006F607FB0EFE0BFB07F71EEB064E4CEB08
:10164000164C4FF000061EEB074E4CEB174B18EBF9
:101650000B0840F1000018EB0E0B58EB000840F1AE
:1016600000008F1A4FF000013CBFC943661B14BF36
:10167000B5EB040C00213CBFC943F61B4FEA1744ED
:101680004EEA8E0E27EA04454FEA1C4704FB076228
:101690002CEA074C05FB07F70CFB05F604FB0CFCDA
:1016A00016EB074642EB174216EB0C4642EB1C4288
:1016B0001BEB060658EB0202414146EA9E0601D5A5
:1016C000BDE80189B619524141EB0101A3F10103C3
:1016D000BDE801894FEA14454FEA114724EA05465F
:1016E00021EA074C05FB07F406FB07F70CFB06F1A4
:1016F00005FB0CFC11EB074144EB17444FEA124782
:1017000011EB0C4144EB1C4422EA074C05FB07F2A9
:1017100006FB07F70CFB06F605FB0CFC16EB074671
:1017200042EB174216EB0C4642EB1C456A1854F18B
:10173000000148BF7047B619524141EB0101A3F1C6
:101740000103704795F0000F37D04FEA11424FEA7E
:10175000144721EA024624EA074C02FB07F106FB84
:1017600007F70CFB06F402FB0CFC14EB074441EBFF
:1017700017414FEA154714EB0C4441EB1C4125EA95
:10178000074C02FB07F506FB07F70CFB06F602FB0E
:101790000CFC16EB074645EB174516EB0C4645EBE4
:1017A0001C42121951F1000148BF7047B61952414D
:1017B00041EB0101A3F1010370474FEA14454FEAE1
:1017C000114724EA054621EA074C05FB07F106FB11
:1017D00007F70CFB06F24FF0000605FB0CFC12EBC2
:1017E000074241EB174112EB0C4251EB1C4148BF41
:1017F0007047921841EB0101A3F10103704721B139
:10180000826842F00102826003E0826822F00102F5
:101810008260704710B504461248844208D1012105
:10182000401501F04BFA0021601501F047FA17E06E
:101830000D48844208D10121001501F03FFA002132
:10184000201501F03BFA0BE00848844208D1012141
:10185000C80301F033FA00214FF4004001F02EFAE2
:1018600010BD00000024014000280140003C014060
:10187000014600208A6802F004020AB1012000E05B
:10188000002070470146C86C80B2704702460020B5
:1018900013680B400BB1012000E0002070470146A7
:1018A00000208A6802F008020AB1012000E000204E
:1018B0007047000030B502460020002350680F4CEE
:1018C00020400D790C6844EA05242043506090685C
:1018D0000B4C2040D1E902542C434D7944EA450495
:1018E00020439060D06A20F470000C7C641EE4B247
:1018F000234340EA0350D06230BD0000FFFEF0FFFA
:10190000FDF7F1FFF0B504460D4600200021092D3A
:1019100011DDE068A5F10A0606EB4607072606FA80
:1019200007F18843A5F10A0606EB460603FA06F11D
:101930000843E0600CE0206905EB4507072606FA3E
:1019400007F1884305EB450603FA06F108432061D9
:10195000072A0FDA606B561E06EB86071F2606FA6B
:1019600007F18843561E06EB860605FA06F1084382
:10197000606322E00D2A0FDA206BD61F06EB860784
:101980001F2606FA07F18843D61F06EB860605FADE
:1019900006F10843206310E0E06AA2F10D0606EBB1
:1019A00086071F2606FA07F18843A2F10D0606EB0B
:1019B000860605FA06F10843E062F0BD816841F051
:1019C00008018160704721B1826842F4A002826000
:1019D00003E0826822F4A00282607047816841F0CF
:1019E000040181607047000000B587B001214FF409
:1019F000017001F053F94FF4004001F023F9032086
:101A0000ADF8040000208DF8070001A9174800F088
:101A1000D2F91748FFF7FEFE002002908DF80C0067
:101A20008DF80D004FF460200490002005900220F6
:101A30008DF8180002A90E48FFF73CFF01210C4861
:101A4000FFF7DDFE0A48FFF7B9FF00BF0848FFF7C0
:101A500026FF0028FAD10648FFF7C0FF00BF044860
:101A6000FFF706FF0028FAD107B000BD00080140CB
:101A70000024014000BFFEE710B5002415480068AF
:101A800020F47000134908600846006840F4000024
:101A9000086004E0601CC4B2012001F07DFD0E4826
:101AA000006808B1C82CF5DBC82C01DB012010BD93
:101AB000002404E0601CC4B2012001F06DFD064862
:101AC000006808B9F02CF5DBF02C01DB0120EEE713
:101AD0000020ECE7000C0140148121422DE9F84F71
:101AE00000F0CAF800F0A6F8FFF7C6FFCC2000F01F
:101AF000CFF8BE2000F0CCF800F08AF8834600F062
:101B000087F80446072C08DDE043C4B26FEA0B00F7
:101B100000F0FF0B4FF0000A01E04FF0010AA14670
:101B20004FEA09200FFA80F909EB0B000FFA80F950
:101B3000484602F081FE009002F074FD0746002244
:101B4000084B02F087FB054602F0EEFA0FFA80F927
:101B5000BAF1000F02D04846BDE8F88FC9F1000085
:101B600000B2F9E70000E43F08B50121082001F0C8
:101B700095F82020ADF8000010208DF80300032018
:101B80008DF802006946064800F015F92021044846
:101B900000F0E4F900F04EF8FFF76EFF08BD00001A
:101BA000000C014010B51748006820F4700015497A
:101BB00008600846006840F44010086000201249A0
:101BC0000860022001F0E8FC01201049C1F89401EE
:101BD0000C48006820F470000A4908600846006854
:101BE00040F4000008600C2001F0D6FC0648803864
:101BF000006808B1012400E00024322001F0CCFC90
:101C0000204610BD000C01409481214200802142F9
:101C100070B50026012508E0FFF7C4FF0446E00187
:101C200040EA6600C6B2681CC5B2082DF4DD304635
:101C300070BD000010B50D48006820F470000B491D
:101C400008600846006840F4401008600020084919
:101C5000086040F2EE2001F09FFC01200549C1F828
:101C600094010F2001F098FC10BD0000000C014011
:101C7000948121420080214210B5FFF7DBFFFFF77E
:101C8000FBFECC2000F004F8442000F001F810BD69
:101C900070B504461848006820F4700016490860C2
:101CA0000846006840F440100860012520E004F078
:101CB000010664106EB1002010490860022001F096
:101CC0006BFC01200E49C1F894013C2001F064FC3A
:101CD0000CE00020094908603C2001F05DFC012077
:101CE0000749C1F89401022001F056FC681CC5B2F6
:101CF000082DDCDD70BD0000000C01409481214204
:101D0000008021422DE9F04F87B01C48B0F9000057
:101D100002F092FD83461A4902F0B0FC824602F0BE
:101D200081FC07468846174800780A2190FBF1F2AB
:101D300001FB12041348007890FBF1F5124800787B
:101D400090FBF1F201FB12060F48007890FBF1F9CD
:101D50000E4800780E4909680E4A12682B46CDE9F4
:101D600002780094CDE904210690324649460AA043
:101D700001F0ECFE07B0BDE8F08F00002600002067
:101D80000000204155000020540000205600002093
:101D90001800002030000020233A256425643A25ED
:101DA0006425642C25302E31662C25642C25642C6A
:101DB0002564230070472DE9F041024600250026E6
:101DC000002000230024002791F803C00CF00F0529
:101DD00091F803C00CF0100CBCF1000F03D091F887
:101DE00002C04CEA050591F800C0BCF1000F31D0EB
:101DF000146800202BE04FF0010C0CFA00F3B1F84E
:101E000000C00CEA03069E4220D183004FF00F0C65
:101E10000CFA03F7BC4305FA03FC4CEA040491F8FE
:101E200003C0BCF1280F06D14FF0010C0CFA00FCE6
:101E3000C2F814C00AE091F803C0BCF1480F05D104
:101E40004FF0010C0CFA00FCC2F810C0401C08282E
:101E5000D1D31460B1F800C0BCF1FF0F34DD546879
:101E600000202EE000F1080C4FF0010808FA0CF3F6
:101E7000B1F800C00CEA03069E4221D183004FF066
:101E80000F0C0CFA03F7BC4305FA03FC4CEA0404FC
:101E900091F803C0BCF1280F05D100F1080C08FA35
:101EA0000CF8C2F8148091F803C0BCF1480F07D1B8
:101EB00000F1080C4FF0010808FA0CF8C2F8108085
:101EC000401C0828CED35460BDE8F081F0B50A4626
:101ED000002300240021002500F00046B6F1004F49
:101EE00002D11D4EF16901E01B4E7168C0F303453C
:101EF00083B200F44016B6F5401F08D121F070619E
:101F0000154E766826F07066134F7E6012E000F47E
:101F10008016B6F5801F06D1032606FA05F4A14304
:101F200041F0706106E0460D360103FA06F6B14352
:101F300041F0706122B1460D360103FA06F63143D5
:101F400000F00046B6F1004F02D1034EF16101E00E
:101F5000014E7160F0BD000000000140016170475A
:101F600010B504460723012221460948FFF7CAFCA1
:101F700001210748FFF727FD00BF02210448FFF7B2
:101F800085FC0028F9D00248FFF77CFC10BD00005A
:101F9000002401402DE9F04107460C4600250026AB
:101FA00008E03846FFF7DCFF0544052001F0CEFAD3
:101FB000701CC6B2A642F4DBB5FBF4F080B2BDE8FB
:101FC000F08100BFFEE770B5024600240025002323
:101FD0000020958A138B1B0445EA030626F07F44F4
:101FE00004EA01068E4201D1012000E0002070BD0C
:101FF00021B1028842F00102028004E002884FF61B
:10200000FE731A400280704700B585B00121480573
:1020100000F024FE0121082000F040FEC020ADF8B1
:10202000000003208DF802001C208DF80300694693
:102030001348FFF7C0FE01210220FFF747FF1148B8
:1020400000F024F80020ADF808004BF6FF70ADF862
:102050000A003020ADF80C004FF48060ADF80E009F
:102060000001ADF810000848019001210548FFF774
:10207000BFFF01A9034800F05BF805B000BD0000F8
:10208000000C014000540040801A060010B50446C0
:102090000B48844209D10121480500F0EFFD0021E1
:1020A0004FF4001000F0EAFD08E00121880500F07F
:1020B000E5FD00214FF4800000F0E0FD10BD0000C0
:1020C0000054004021B1028842F48072028004E092
:1020D00002884FF6FF631A400280704721B10288E0
:1020E00042F40072028004E002884FF6FF531A4067
:1020F000028070470CB50246002000230193009334
:1021000000920B0F019321F07F41019B1BB1009BBB
:102110001433009303E0090C009B18330093009BD9
:102120001B680B400BB1012000E000200CBD00003B
:102130002DE9F04385B004460D460026B14604273C
:10214000DFF8CC80A6884FF6C0700640684600F0E5
:10215000C5FDDDF808802F48B8FBF0F01FFA80F9C4
:1021600046EA0906A68020884FF6FE7108402080C6
:1021700000262949286888420CD828684000B8FB06
:10218000F0F087B2042F00DA04273E4309F1010082
:10219000208427E0E8884BF6FF71884206D1286842
:1021A00000EB4000B8FBF0F087B209E0286800EBD4
:1021B000C00101EB0010B8FBF0F087B247F4804794
:1021C000C7F30B0008B947F0010747F40040064386
:1021D0004FF4967009FB00F04FF47A7190FBF1F028
:1021E000401C2084A683208840F00100208026889F
:1021F0004FF6F5300640A8886989084306432680D3
:10220000A88929890843208105B0BDE8F083000032
:1022100000127A0040420F00A086010012B141F086
:10222000010102E04FF6FE731940018270470182FE
:102230007047000070B504460D4600BF4FF40031F2
:102240001C48FFF757FF0028F8D101211948FFF774
:1022500039FF00BF18491748FFF7B5FE0028F9D02D
:10226000002278211348FFF7D9FF00BF1349114816
:10227000FFF7A9FE0028F9D021460E48FFF7D7FF47
:1022800000BF0E49891C0B48FFF79DFE0028F8D0BF
:1022900029460848FFF7CBFF00BF0849891C0548BD
:1022A000FFF791FE0028F8D001210248FFF716FF42
:1022B00070BD0000005400400100030082000700D0
:1022C00008B501211C2000F0E9FC01211148FFF7AD
:1022D000FDFDE020ADF8000048208DF803006946C0
:1022E0000D48FFF768FD4FF44070ADF8000048203E
:1022F0008DF8030069460948FFF75DFD4FF4404043
:10230000ADF8000048208DF8030069460448FFF747
:1023100052FD08BD0002300000080140000C0140E1
:102320000010014010B5044614B101202249087084
:102330002148007848B32148006850B11F48001F69
:10234000006830B11E48006818B11D48001D0068C3
:10235000D8B90A2001F0FAF8002017490870174888
:10236000006808B9012010BD1448001F006808B9B2
:102370000220F8E71248006808B90320F3E7104884
:10238000001D0068A8B90420EDE70C48006801288A
:102390000FD10A48001F006801280AD108480068C8
:1023A000012806D10648001D0068012801D1024914
:1023B00008700020D7E7000052000020248121424D
:1023C0003801224270B5002400250020FFF7AAFF43
:1023D00004460120FFF7A6FF0546012C53D100F06B
:1023E0004FFA73480078401C71490870084600781D
:1023F000052801DB002008706D480078C0B9102363
:102400006CA20021184600F0EBFB10236CA21946C9
:10241000184600F0E5FB10236DA22021184600F0BD
:10242000DFFB10236DA23021184600F0D9FB2AE013
:102430005F480078012806D110236BA218211846A6
:1024400000F0CEFB1FE05A480078022806D1102386
:1024500069A21821184600F0C3FB14E05448007824
:10246000032806D1102368A21821184600F0B8FBF3
:1024700009E04F480078042805D1102366A21821EE
:10248000184600F0ADFB022D3DD1782001F05EF83A
:1024900047480078012809D163480088632832DA68
:1024A00061480088401C604908802CE04048007862
:1024B000022809D15D480088632824DA5B48008837
:1024C000401C5A4908801EE03948007803280BD187
:1024D0005748008840F2E731884214DA54480088AF
:1024E000401C534908800EE03148007804280AD186
:1024F0005048008842F20F71884204DA4D48008843
:10250000401C4C490880032D39D1782001F01EF879
:1025100027480078012809D14348008801282EDD8A
:1025200041480088401E4049088028E02048007843
:10253000022809D13D480088012820DD3B48008859
:10254000401E3A4908801AE019480078032809D14A
:1025500037480088012812DD35480088401E34497C
:1025600008800CE012480078042808D1314800881F
:10257000012804DD2F480088401E2E490880042CC5
:1025800015D10B48007890B92B48007840B901204C
:10259000294908700020294908702949087006E077
:1025A000002025490870254908702549087070BD2C
:1025B0001C000020B6A8CAB13A30303A30302000B2
:1025C000CEC2B6C83A20202E20A1E620000000008E
:1025D000B9E2D5D53A2020204C782000D7C7B6C81C
:1025E0003A20202020202000B6A8CAB1CAB1BCE4FD
:1025F0003A20202020202000CEC2B6C8C9CFCFDE8E
:102600003A20202020202000B9E2D5D5CFC2CFDE4D
:102610003A20202020202000D7C7B6C8C9CFCFDE5F
:102620003A202020202020001E0000202000002032
:102630002200002024000020560000205500002029
:102640005400002010B50246012000E050430B006A
:10265000A1F10104E1B2F9D110BD2DE9F84F07460F
:10266000884692461E460A9D00200090002436E0CF
:10267000301B401EC1B20A20FFF7E4FFBAFBF0F0A6
:102680000A21B0FBF1F201FB12090098A8B9701EF3
:10269000A04212DDB9F1000F0DD1AB4605EBDB72A4
:1026A000521002FB0472D0B208F0FF012B46202228
:1026B00000F084F911E001200090AB4605EBDB73DC
:1026C0005B1003FB0473D8B209F13003DAB208F0EF
:1026D000FF012B4600F072F900BF601CC4B2B44287
:1026E000C6DBBDE8F88F2DE9F84F074688469246CD
:1026F0001E460A9D00200090002436E0301B401E3C
:10270000C1B20A20FFF79EFFBAFBF0F00A21B0FB2E
:10271000F1F201FB12090098A8B9701EA04212DD67
:10272000B9F1000F0DD1AB4605EBDB72521002FB85
:102730000472D0B208F0FF012B46302200F03EF9BF
:1027400011E001200090AB4605EBDB735B1003FB4F
:102750000473D8B209F13003DAB208F0FF012B4656
:1027600000F02CF900BF601CC4B2B442C6DBBDE867
:10277000F88F000008B501210C2000F08FFA10201E
:10278000ADF800008DF8030003208DF802006946C3
:102790001648FFF710FB10211448FFF7DFFB4FF43A
:1027A0008070ADF8000014208DF8030003208DF830
:1027B000020069460D48FFF7FEFA4FF480710B489E
:1027C000FFF7CCFB4FF47040ADF8000014208DF8FB
:1027D000030003208DF8020069460548FFF7EBFA75
:1027E0004FF470410248FFF7B9FB08BD00080140F3
:1027F000000C014000BFFEE77047000070B50021EB
:1028000000230F22C47804B3154C246804F4E06458
:10281000C4F5E064210AC1F10403CA40447804FA13
:1028200003F184781440214309010E4C0678A15528
:10283000047804F01F050124AC4005786D11AD004B
:1028400005F1E025C5F8004109E0047804F01F0512
:102850000124AC40044D0678761145F8264070BD41
:102860000CED00E000E400E080E100E002490143FB
:10287000024A1160704700000000FA050CED00E00C
:1028800070B5002415E004F1B001C8B200F073F88F
:10289000002000F070F8102000F06DF8002504E032
:1028A000002000F06FF8681CC5B2802DF8DB601CBA
:1028B000C4B2082CE7DB70BD10B5642000F046FE02
:1028C000AE2000F058F8202000F055F8102000F05D
:1028D00052F8B02000F04FF8C82000F04CF800206B
:1028E00000F049F8102000F046F8402000F043F8CE
:1028F000812000F040F8FF2000F03DF8A12000F01A
:102900003AF8A62000F037F8A82000F034F83F206D
:1029100000F031F8A42000F02EF8D32000F02BF8BE
:10292000002000F028F8D52000F025F8F02000F075
:1029300022F8D92000F01FF8222000F01CF8DA203D
:1029400000F019F8122000F016F8DB2000F013F860
:10295000202000F010F88D2000F00DF8142000F079
:102960000AF8AF2000F007F8FFF78AFF00210846B9
:1029700000F00FF810BD10B5044621460020FFF707
:1029800059FC10BD10B5044621464020FFF752FC0B
:1029900010BD70B504460D4605F1B001C8B2FFF791
:1029A000EAFF102141EA1410FFF7E5FF04F00F01E0
:1029B00041F00100FFF7DFFF70BD00002DE9F04F8F
:1029C00087B081460D4617461C464FF00008B9F106
:1029D0007F0F02DDC146A81CC5B2002667E0304665
:1029E00001F0E8FB0022344BCDE9000101F032FC9C
:1029F000CDE90401204601F0DDFB00222F4BCDE99B
:102A0000000101F039FACDE90201DDE9042301F00A
:102A1000E5FB02D807B0BDE8F08FAB46E81705EB41
:102A2000507006EBE000C1B24846FFF7B2FF4FF02E
:102A3000000A35E00C2C0ED1A7F1200101EB410179
:102A40001F4A02EB810341464A1C1FFA82F8585C78
:102A5000FFF798FF20E0102C0CD1A7F12001194AB4
:102A600002EB011341464A1C1FFA82F8585CFFF73B
:102A700089FF11E0182C0ED1A7F1200101EBC10153
:102A8000114A02EB810341464A1C1FFA82F8585C46
:102A9000FFF778FF00E0BDE70AF1010000F0FF0A50
:102AA00004EBD471BAEB610FC4DB701CC6B2082E04
:102AB00095DB00BFAEE700000000F03F00002040C3
:102AC0007C4C0008F0500008E05600082DE9FF4F4C
:102AD00087B00F4690461D464FF0000A002473E071
:102AE00098F8000004EB840101EBC401384A12F8A5
:102AF0002110884266D198F8010004EB840101EBB3
:102B0000C40102EB8101497888425BD1002656E07E
:102B1000304601F04FFB00222E4BCDE9000101F0C1
:102B200099FBCDE90401284601F044FB00222A4B21
:102B3000CDE9000101F0A0F9CDE90201DDE90423AE
:102B400001F04CFB02D80BB0BDE8F08FBB46F81784
:102B500007EB507006EBE000C1B20798FFF719FFD2
:102B60004FF0000927E00C2D0ED104EBC40101EB5E
:102B700041011A4A1144C91C5246531C1FFA83FAD8
:102B8000885CFFF7FFFE12E0102D0FD104EB8401EB
:102B900001EBC4010E4A02EB810114315246531C71
:102BA0001FFA83FA885CFFF7EDFE00E0CBE709F13E
:102BB000010000F0FF09A945D5DB701CC6B2022E4A
:102BC000A6DBC0E7601CC4B2142C89DB00BFBAE7E7
:102BD000024900080000F03F00002040DA4B0008E6
:102BE0002DE9F04106460F4614461D464FF00008F9
:102BF00021E0B8F1000F13D12078802802DD4FF0DA
:102C0000010818E022782B4639463046FFF7D6FEF9
:102C1000641C284605EBD07106EB6101CEB20AE0D8
:102C20004FF000082B46224639463046FFF74EFF4C
:102C3000A41C7019C6B220780028DAD1BDE8F08152
:102C40007047000001460020034A506820F44040CD
:102C500008435060704700000010024029B1064A46
:102C6000D2690243044BDA6104E0034AD269824329
:102C7000014BDA61704700000010024029B1064A9A
:102C800012690243044B1A6104E0034A1269824349
:102C9000014B1A61704700000010024029B1064A3A
:102CA00092690243044B9A6104E0034A92698243A9
:102CB000014B9A61704700000010024029B1064A9A
:102CC000D2680243044BDA6004E0034AD2688243CC
:102CD000014BDA60704700000010024030B500215F
:102CE0000022002400232D4D6D6805F00C0121B158
:102CF000042905D0082923D105E0294D056022E0EB
:102D0000274D05601FE0254D6D6805F47012234DB9
:102D10006D6805F48034022505EB92421CB9214D03
:102D2000554305600BE01D4D6D6805F400351DB180
:102D30001C4D5543056002E0194D5543056002E006
:102D4000174D056000BF00BF144D6D6805F0F00120
:102D50000909154D6B5C0568DD4045600F4D6D68D8
:102D600005F4E061090A104D6B5C4568DD40856043
:102D70000A4D6D6805F46051C90A0B4D6B5C4568DE
:102D8000DD40C560054D6D6805F44041890B074D78
:102D90006B5CC568B5FBF3F5056130BD0010024002
:102DA00000127A0000093D00340000204400002099
:102DB000704710B500F002F810BD00000CB50020FF
:102DC000019000903348006840F480303149086039
:102DD00000BF3048006800F4003000900198401CAB
:102DE0000190009818B90198B0F5A06FF1D1294869
:102DF000006800F4003010B10120009001E00020D4
:102E000000900098012843D12348006840F010004A
:102E1000214908600846006820F003000860084661
:102E2000006840F0020008601A484068194948608C
:102E30000846406848600846406840F48060486042
:102E40000846406820F47C1048600846406840F41A
:102E5000E81048600846006840F08070086000BFD5
:102E60000C48006800F000700028F9D0094840685C
:102E700020F00300074948600846406840F002001F
:102E8000486000BF0348406800F00C000828F9D1F2
:102E90000CBD00000010024000200240042808D1B0
:102EA0004FF0E021096941F004014FF0E022116187
:102EB00007E04FF0E021096921F004014FF0E02222
:102EC000116170477047000010B51348006840F06A
:102ED00001001149086008464068104908400E4941
:102EE0004860084600680E4908400B4908600846DB
:102EF000006820F4802008600846406820F4FE0046
:102F000048604FF41F008860FFF753FF4FF00060E8
:102F10000449086010BD0000001002400000FFF8E6
:102F2000FFFFF6FE08ED00E010B50121234800F098
:102F300094F8002841D00121204800F07FF8204873
:102F40000078012824D11F480088401C1D490880B2
:102F50000846008864281EDB002008801A48007894
:102F6000401C19490870084600783C2813DB0020F3
:102F7000087016480078401C14490870084600780C
:102F800013490988884206DB00200D49087002E0D9
:102F900000200C4908800F48007870B90E4800885E
:102FA000401C0D49088008460088B0F5C87F04DB46
:102FB0000020088001200749087010BD000400406F
:102FC000560000205A000020550000205400002028
:102FD0001E000020580000205C0000207FB5054640
:102FE0000C4601210220FFF739FEADF80850ADF87C
:102FF00004400020ADF80A00ADF8060001A90E4813
:1030000000F046F8012211460B4800F037F81D2069
:103010008DF8000000208DF8010003208DF80200DB
:1030200001208DF803006846FFF7E8FB0121024804
:1030300000F007F87FBD000000040040CA43028290
:10304000704721B1028842F00102028004E0028848
:103050004FF6FE731A400280704730B502460020DA
:1030600000230024158A05EA0103958905EA010475
:1030700013B10CB1012000E0002030BD1AB18389EA
:103080000B43838102E083898B4383817047000077
:10309000002202881D4B98420ED01D4B98420BD047
:1030A000B0F1804F08D01B4B984205D01A4B984284
:1030B00002D01A4B984204D14FF68F731A404B88B6
:1030C0001A43174B984207D0164B984204D04FF63C
:1030D000FF431A40CB881A4302808B8883850B8874
:1030E00003850A4B98420BD0094B984208D00E4BEF
:1030F000984205D00D4B984202D00D4B984201D119
:103100000B7A03860123838270470000002C014064
:10311000003401400004004000080040000C004062
:1031200000100040001400400040014000440140F5
:103130000048014010B540F225511D4800F0FFF84D
:1031400010B31B4800F0B6F9C4B21A48008800F466
:103150000040C8B91748008800F4804060B10A2CCC
:1031600003D000201349088020E01248008840F472
:1031700000401049088019E00D2C06D10D48008848
:1031800040F480400B49088010E00A480088C0F3F2
:103190000D0009490C5407480088401C0549088067
:1031A00008460088C72801DD0020088010BD000007
:1031B00000380140500000206400002010B540F2AB
:1031C0002551244800F0BBF8002842D0214800F0E7
:1031D00071F9C4B2232C01D00A2C2DD11E480078DD
:1031E0004F2806D11C4840784B2802D101201B49AA
:1031F0000870194800784B280BD1174840784428AC
:1032000007D1012016490870002016490870164998
:1032100008701148007847280AD10F4840784428A0
:1032200006D100200E4908700E4908700E4908703A
:1032300000200E4908800CE007480C4909884454D6
:103240000A480088401C094908803E2C01D1002012
:10325000088010BD004800402C01002060000020C4
:103260005600002055000020540000205E00002081
:1032700021B1828942F40052828104E082894DF6B4
:10328000FF731A408281704710B50446204884427B
:1032900009D101218803FFF711FD00214FF480407F
:1032A000FFF70CFD32E01B48844209D1012148049C
:1032B000FFF7E4FC00214FF40030FFF7DFFC25E0CE
:1032C0001548844209D101218804FFF7D7FC002169
:1032D0004FF48020FFF7D2FC18E01048844209D157
:1032E0000121C804FFF7CAFC00214FF40020FFF7BA
:1032F000C5FC0BE00A48844208D101210805FFF70C
:10330000BDFC00214FF48010FFF7B8FC10BD000099
:10331000003801400044004000480040004C00409C
:103320000050004002460020B1F5007F00D100BFF0
:1033300013880B400BB1012000E00020704770B5EE
:103340000246002400230025002040F66A16B14200
:1033500000D100BFC1F3421501F01F03012606FA98
:1033600003F3012D02D19689334006E0022D02D1EC
:10337000168A334001E0968A33400C12012606FA81
:1033800004F41688344013B10CB1012000E0002091
:1033900070BDF0B50346002400260025002040F64D
:1033A0006A17B94200D100BF1846C1F3421401F0B8
:1033B0001F06012707FA06F5012C01D10C3004E0A5
:1033C000022C01D1103000E014301AB107682F43ED
:1033D000076002E00768AF430760F0BD2DE9F047E2
:1033E00086B005460E460024A24600BFA14600272F
:1033F000B08900B100BF2F462C8A4CF6FF70044004
:10340000F08804432C82AC894EF6F3100440B08857
:1034100031890843718908430443AC81AC8A4FF673
:10342000FF400440B0890443AC8201A8FFF756FC7A
:103430001F48874202D1DDF810A001E0DDF80CA0A2
:10344000A88900F4004040B10AEBCA0000EB0A1062
:1034500031684900B0FBF1F807E00AEBCA0000EB65
:103460000A1031688900B0FBF1F86420B8FBF0F075
:1034700004012009642101FB1089A88900F400409F
:1034800040B1322000EBC900B0FBF1F000F00700C2
:10349000044308E0322000EB09106421B0FBF1F096
:1034A00000F00F0004432C8106B0BDE8F087000057
:1034B0000038014001468888C0F308007047C1F316
:1034C00008028280704700BFFEE7490050EAC12031
:1034D00018BF04204A0D18BF40F0010040F2FF72EF
:1034E000B2EB515F08BF40F00200012808BF052081
:1034F000704730380A2801D20120704700207047F9
:10350000014600BF7047000010B56FF00400FFF7E0
:10351000C5FC0A4800680A49B0FBF1F00949087087
:103520000846007800EB4001C1EBC0104FF6FF7178
:1035300001EAC0000449088010BD0000000000201E
:1035400000127A00480000204A0000200146114A7B
:1035500012884A434FF0E0235A6100229A611A46CA
:10356000126942F001021A6100BF4FF0E0221069B7
:1035700000F001021AB100F48032002AF5D04FF0B9
:10358000E022126922F001024FF0E0231A610022CA
:103590009A6170474A0000200146114A12784A4356
:1035A0004FF0E0235A6100229A611A46126942F0F4
:1035B00001021A6100BF4FF0E022106900F0010221
:1035C0001AB100F48032002AF5D04FF0E0221269DF
:1035D00022F001024FF0E0231A6100229A61704745
:1035E0004800002010B54FF47A70FFF7AFFF06E0F7
:1035F00034A000F0ABFA4FF47A70FFF7A7FF33481E
:1036000000780028F4D000203049087030A000F085
:103610009DFA4FF47A70FFF799FF4FF47A70FFF735
:1036200095FF00BF294800780028FBD000202749DB
:1036300008702BA000F08AFA40F21450FFF786FFC2
:1036400040F21450FFF782FF00BF204800780028A6
:10365000FBD000201D4908702AA000F077FA4FF433
:103660007A70FFF773FF4FF47A70FFF76FFF00BFB8
:10367000164800780028FBD00020144908702BA0C1
:1036800000F064FA4FF47A70FFF760FF4FF47A703D
:10369000FFF75CFF29A000F059FA4FF47A70FFF7AA
:1036A00055FF4FF47A70FFF751FF28A000F04EFA53
:1036B0004FF47A70FFF74AFF4FF47A70FFF746FF36
:1036C00010BD000041540D0A000000006000002001
:1036D00041542B43574D4F44453D330D0A000000E4
:1036E00041542B43574A41503D22455350383236BE
:1036F0003641222C223132333435363738220D0A06
:103700000000000041542B43495053544152543D52
:1037100022544350222C227463702E746C696E6B99
:103720002E696F222C383634370D0A0041542B4352
:1037300049504D4F44453D310D0A000041542B4343
:10374000495053454E440D0A0000000036323133D3
:1037500033323038373139365357344E0000000099
:1037600008B5FFF7D1FEFEF74FFCFFF7A5F81023D1
:10377000CDA219461846FFF733FA4FF4A060FFF7C1
:1037800075F841F61F416320FFF728FC4FF41650EF
:1037900000F004FAFFF726FFFFF78EF81023C6A209
:1037A00000211846FFF71CFA1023C6A21946184636
:1037B000FFF716FA1023C7A220211846FFF710FAC8
:1037C0001023C7A230211846FFF70AFAFEF7D2FFEE
:1037D000FEF776FDFEF7C8F9FEF706F962E1FEF79F
:1037E000F1FDC248007800287DD11020022300900E
:1037F000BF48027800213820FEF775FF1020022311
:103800000090BC48027800215020FEF76CFFFEF7C4
:1038100065F9B94908800846B0F900000A2190FB13
:10382000F1F0B6490860B448B0F900000A2190FBF5
:10383000F1F4102002232246014600903820FEF7C2
:103840000CFFAD48B0F900000A2190FBF1F201FB3A
:103850001204102001232246014600905020FEF75A
:10386000FCFE0A210120FEF795FBA54908600846E9
:103870000068092190FBF1F0C0F5FA70A0490860DA
:103880001020032300900846202102683820FEF70C
:10389000E4FE0A210020FEF77DFB9A4908600846F5
:1038A000006800F0C9FF81464FF08B4100F0E6FE52
:1038B000044600F0B7FE07464FF06632924B00F028
:1038C000C9FC054600F0F2F9904908600846006816
:1038D00000F0A8FE06468E4A8E4B00F0BBFC044664
:1038E0008D4A8E4B00E09CE000F012FA804600F01A
:1038F000DDF9864908600846006800F081FF8046CF
:1039000000F041FC0646864A864B00F0A3FC0446C4
:1039100000F00AFC84490860102004230090084647
:10392000302102683820FEF798FE80480078012890
:103930000CD17F480068012803D17D497C310860A3
:1039400008E000207A497C31086003E001207849D2
:103950007C3108606948006876490988884203DA42
:1039600000207549086002E0012073490860704832
:10397000001D006840B96E4808300068012803D176
:1039800000206D49091F08606948001D0068012872
:1039900007D167480830006818B901206649091F37
:1039A00008606148006865490988884204DD002094
:1039B00061490839086003E001205F49083908605F
:1039C0005B48006801280AD14D4800685C490988B5
:1039D000884204DA002056498C31086003E0012057
:1039E00053498C3108605448006838B15248001F70
:1039F000006818B150480838006820B900204E49C6
:103A0000091D086003E001204B49091D08604D486D
:103A1000007801283CD1FEF775F90020494908706B
:103A200036E032480078012809D1102002230090A6
:103A30004548028818215820FEF70FFE28E02B4841
:103A40000078022809D1102002230090394802880A
:103A500018215820FEF701FE1AE0244800780328B8
:103A600009D11020032300903548028818215820DE
:103A7000FEF7F3FD0CE01D480078042808D1102063
:103A8000042300902D48028818215820FEF7E5FDF8
:103A90001648007818B101202749091D0860142034
:103AA000FFF754FD9BE60000436F6E656374696E1B
:103AB000672E2E2E00000000B6A8CAB13A30303A68
:103AC00030302000CEC2B6C83A20202E20A1E620F9
:103AD00000000000B9E2D5D53A2020204C78200023
:103AE000D7C7B6C83A202020202020001C00002084
:103AF000540000205500002026000020280000204F
:103B0000300000202C00002066660A4014000020CF
:103B10003D0AD7A3700D8BC09A99999999D2A1406B
:103B2000CDCCCCCCCCCCE43F1800002056000020FB
:103B30001401214220000020B881214224000020ED
:103B400022000020580000201E0000200FB438B5CD
:103B500005A800900F48009A0499FCF78DFB0020FF
:103B600000900C48FCF79AFB85B200240DE000BFE2
:103B700040210948FFF7D6FB0028F9D00548015D30
:103B80000548FFF79CFC601C84B2AC42EFDB38BCFC
:103B90005DF814FB840300200048004010B586B097
:103BA000044601210820FFF779F801218804FFF776
:103BB00055F82548FFF768FB4FF48060ADF810001A
:103BC00003208DF8120018208DF8130004A91F4857
:103BD000FEF7F1F84FF40060ADF8100004208DF806
:103BE000130004A91948FEF7E6F800940020ADF888
:103BF0000400ADF80600ADF80800ADF80C000C208C
:103C0000ADF80A0069461048FFF7E8FB01210E48AD
:103C1000FFF72EFB012240F225510B48FFF7B9FBBD
:103C200027208DF8140002208DF8150003208DF850
:103C3000160001208DF8170005A8FEF7DFFD002013
:103C40000349088006B010BD00480040000C014048
:103C50005E00002010B500290AD00878002807D09F
:103C600005487844FDF7D0F9002801D0002010BDA8
:103C70000248784410BD0000D2280000CA28000085
:103C800010B500290AD00878002807D005487844E4
:103C9000FDF7BAF9002801D0002010BD0248784491
:103CA00010BD0000C2280000BA28000021F0004228
:103CB000A2F16052B2F5801F01F0004328BFD2F19B
:103CC0007F6C0BD95FEA001C43EAC20242EB5070E2
:103CD00018BF704728BF20F001007047B2F5801F61
:103CE000BCBF184670474FEA410C1CF5001F02D2BA
:103CF000084600F0FFBD70B500F056FB00000089DB
:103D0000FFF7F6BF4FF00040A0F5800070470000BD
:103D100010B591EA030F48BF83F0004300F1A08380
:103D2000841A71EB030C05D2121943EB0C03001B30
:103D300061EB0C01DFF824E14FEA1154A4EB135CB2
:103D40001EEA430F18BF9EEA445F73D023EA0E03B6
:103D5000DCF1200E21EA045143F4801332D322FA1D
:103D60000CFE10EB0E0023FA0CFE41EB0E01CCF121
:103D7000200E03FA0EFE10EB0E0051F10001B1F51A
:103D8000801FCCF1200E32D201EB045112FA0EF258
:103D9000BDE8104058BF7047401C38BF5FEA420280
:103DA00018BF7047002814BF20F0010041F1000146
:103DB0004FEA410313F5001F38BF7047A1F1C0411E
:103DC00000F040BB012A43EB0302ACF1200CDCF114
:103DD0001F0E32BF4FF0000E23FA0CF310EB03005E
:103DE00041EB0451B4EB115FD0D0A1EB045101F5CC
:103DF000801149085FEA300001EB04510ED350F105
:103E0000000038BF12FA0EFE08D1BDE81040C9E725
:103E1000401C38BF5FEA4202CAD1C3E7BDE8104088
:103E20004FEA410313F5001F38BF7047A1F1C041AD
:103E300000F008BB9EEA445F08D011EA5E0FBDE8BF
:103E4000104004BF01F0004100207047BDE8104061
:103E500070B500F0A9FA00BF64FBBE3E0000E0FFB1
:103E6000491058BFC1F140415B1058BFC3F14043F6
:103E70008B42EFF3008070472DE9C04130B4DFF88A
:103E8000A0C23CEA111418BF3CEA131400F0EC8005
:103E900081EA03051CEA111444EAD57418BF1CEA30
:103EA000131500F0C780A4EB05044FF0004545EA68
:103EB000C12145EAC32341EA505143EA525304F178
:103EC0007F74994204F500344FEAC0204FEAC222C1
:103ED00008BF904200F09C804FEA13650FF2401635
:103EE000765D4FEA134506FB05F7C7F1807706FBC1
:103EF00007F74FEAD737A7FB03687642C8F5803843
:103F0000A7FB06CE38BFA8F1010807FB08E64FF073
:103F1000000EA6FB028CE6FB03CEDCF1000CCEF11A
:103F2000004E38BFAEF1010EA6FB0C584FF0000753
:103F30004FF00005E6FB0E87A1FB08C6A0FB07CEED
:103F400016EB0E0645F10005E1FB076515F1E04EA5
:103F50007EBFA4F580345FEA46066D4116F1800706
:103F600045F100054FEA17274FEA066647EA05675D
:103F7000A6F1DE46B6F1805F4FEA15251FD9384617
:103F800024F0010C05EBC471BCF1FE6F01EB0C11C8
:103F900002D8F0BCBDE8008124425CBF01F5801E60
:103FA0009EEAC47F02D4F0BCBDE80081244238D42C
:103FB000F0BCA1F1C041BDE8004100F043BA4FEAB6
:103FC000D22242EA43524FEAD323A7FB02864FEAAA
:103FD000D02040EA415007FB03661EEA0E0F4FEA6D
:103FE000D12105FB026658BFA6EB0056B6EB005682
:103FF0004FEA520E4EEAC37E18EB0E0E56EB530EEE
:10400000BDD518EB02085E417F1C55F10005B6E7EF
:104010004FF480154FF000074FF000064FF00008F6
:10402000ADE7F0BC4FF0000001F1C04101F00041EC
:10403000BDE8008111EA0C1F0CEA131500D00CE05A
:1040400013EA0C1F00F025804FF00000F0BC81EA5D
:10405000030101F00041BDE80081F0BCBDE8004172
:1040600081EA030100F0EEB9F0BCBDE8004170B593
:1040700000F09AF9097EFC3E00F007B881EA0301DE
:104080004FF0000001F00041704781EA030100F0A9
:10409000D9B9F0BCBDE800414FF00000214970479C
:1040A000FFFDFBF9F7F5F4F2F0EEEDEBE9E8E6E4FD
:1040B000E3E1E0DEDDDBDAD8D7D5D4D3D1D0CFCD84
:1040C000CCCBCAC8C7C6C5C4C2C1C0BFBEBDBCBBBD
:1040D000BAB9B8B7B6B5B4B3B2B1B0AFAEADACABB8
:1040E000AAA9A8A8A7A6A5A4A3A3A2A1A09F9F9E92
:1040F0009D9C9C9B9A999998979796959594939344
:10410000929191908F8F8E8E8D8C8C8B8B8A8989DA
:10411000888887878685858484838382828181805D
:104120000000FF070000F87F4FEA41034FEA5353B6
:10413000A3F58063D3F11E03C8BFD3F1210C0CDDBE
:104140004FF0004242EAC12242EA505232FA03FCE6
:104150008CEAE17CACEBE1707047102BC4BF00200F
:10416000704703F5787CBCF1FF3F04D06FF000424C
:1041700082EA2100704770B500F016F94992248058
:1041800000207047F2E710F0004248BF4042B0FA0A
:1041900080F310FA03F10AD0C3F11D0303F5806325
:1041A0004FEA415002EB035202EBD12170474FF02E
:1041B00000007047B0FA80F310FA03F10AD0C3F19F
:1041C0001D0303F580634FEA41504FEA035202EBAF
:1041D000D12170474FF000007047000051EA030CF6
:1041E00017D41CF5801F58BFBCF5801F00F1068056
:1041F000994218BF704708BF9042704707D711F522
:10420000801F58BF13F5801F19D499427047894207
:1042100070471CF5801F08D5BCF5801FF7D58B4271
:1042200018BF704708BF824270474FF4001C1CEB58
:10423000410F38BF1CEB430F01D28B42704770B562
:1042400000F0B2F8922449004FF000514FF0805333
:10425000FFF706BEDFF848C170B51CEA111E1EBF8D
:104260001CEA13159EEA0C0F95EA0C0F00F06F8004
:1042700081EA030423EA4C134EEAD47E21EA4C116E
:1042800041F4801143F48013AE44A1FB024CA0FB27
:104290000365AEF17F7E361955EB0C05A1FB034C8F
:1042A0004CF10003A0FB021C16EB0C06654153F118
:1042B0000003094218BF46F0010613F4007F0BD13A
:1042C0004FEA03314FEA0530340341EA155140EA21
:1042D00016506FF003020AE04FEAC3214FEAC520EF
:1042E000F40241EA555140EA56506FF0020202EBE7
:1042F0002E4201EB025585EACE710AD05FEA440CEA
:1043000018BF24F0004450F1000041F1000120EA00
:10431000D47040F2FE7C624500D270BDA84214BF4A
:104320004FF080444FF04044002E08BF0024BEF1FF
:10433000806FA8BFA1F1C041BDE8704080F28280CB
:104340004FF0000001F1C04101F0004170479EEACA
:104350000C0F0CEA131518BF95EA0C0F06D04FF09E
:10436000000081EA030E0EF0004170BD00F01CF861
:104370008900013E00F007B800F009B84FEA430C8D
:104380005FEA5C5C08D081EA030100F05BB84FEAA9
:10439000410C5FEA5C5CF6D14FF0000001497047C8
:1043A0000000FF070000F87F0EF1020E2EF0030E52
:1043B0005EF8046B364205D4012A43EB030515F57C
:1043C000001F12D8012841EB010C1CF5001F0CD86E
:1043D0000ED14FEAD17C15F5001F0CEB4C0C0CF103
:1043E000020C08BF4CEBD37C04E04FF0080C01E05A
:1043F0004FEAD37C0CEB4C0526FA05F606F00706CF
:10440000B6F1040C06D20EEB860CBDE870404CF001
:10441000010C6047DFE80CF0090B02024FF000418D
:104420004FF00000A1F5002170BD1946104601288B
:1044300051EB010418BFD4F5001484BF002001F033
:10444000004170BD0808A0F500114FEA3101704726
:1044500010B591EA030F48BF83F000433FF560AC0D
:10446000841A71EB030C07D212198CF0004C43EB49
:104470000C03001B61EB0C01DFF8A4E14FEA1154BF
:10448000A4EB135C1EEA430F18BF9EEA445F00F0E2
:10449000B08023EA6E03524221EA0451C3EB6E035B
:1044A00038BF5B1EDCF1200E25D322FA0CFE10EB88
:1044B0000E0043FA0CFE41EB0E01CCF1200E03FA84
:1044C0000EFE10EB0E0051F10001CCF1200E29D4AC
:1044D00012FA0EF201EB0451BDE8104058BF7047CC
:1044E000401C1CBFB2F1004F704700280CBF491C94
:1044F00020F00100704712EB020E43EB030218BFDD
:104500004FF0010E4EEA4202ACF1200CDCF11E0E1F
:1045100054D943FA0CFE10EB0E0051F1FF31CCF1EF
:104520001E0ED5D50EF1010E12FA0EFE404141EBE2
:10453000010101EB445C5FEA5C5C10D910EBDE70BA
:1045400001EB045138BFBEF1004FBDE8104018BF69
:10455000704700280CBF491C20F00100704730D282
:104560004FEAD42C11F5001124F400641BD0B1FAE9
:1045700081F20B3AA41AA41ED2F12003914030FA22
:1045800003F31943904001EBCC71002C01EB045173
:10459000BDE81040A8BF704701F1C0414FF00000D6
:1045A00001F000417047B0FA80F310FA03F100D136
:1045B00010BDE41A173C4805C90AE4E701EB0451B1
:1045C00010BD491001EB0451BDE810404FEA300026
:1045D00002E04FF0000170474A0008BF0042F8D0E7
:1045E000B2F5001F28BF704701F000414FF00000F6
:1045F00070479EEA445F07D011EA5E0FBDE81040A5
:1046000004BF002100207047BDE8104070B5FFF7DF
:10461000CBFE00BF40DFF63E83F0004110467047FE
:104620000000E0FF43004FEAD30C4FEA3C0C43404C
:104630001FBF40070CF1605113F0FE4F70471CF094
:10464000006F03D100200CF0004170470CF00043D4
:1046500043EA507010B540EACC0000F005F900BF05
:10466000000000924FEA0001FFF7ECBE4FF000415E
:104670004FF00000A1F50021704700004FF47F0CBF
:104680001CEAD0121EBF1CEAD11392EA0C0F93EA67
:104690000C0F00F0858090EA010F48BF42F4807251
:1046A00040F4000C41F400002CF07F4120F07F40EA
:1046B00000B58142A2EB03020FF2081CACEB504E96
:1046C000C0F100009EF800E04FEA4E0E00FB0EFC29
:1046D00038BF49004FEA2C1C02F5FA020CFB0EF31E
:1046E0004FEACE1E4FEA112C4FEAC1210EEB635E5A
:1046F00042EB22420EFB0CFC4FEA1C5300FB031161
:104700004FEA112C4FEA01310EFB0CFC4FEADC4C56
:1047100000FB0C11C14228BF09184CEB03335DF8B4
:1047200004EB10EB410143EBC250B2F57C0F38BFF4
:10473000704729D512F0F00F1CBF00F1C04000F007
:1047400000407047008182838485868788898B8CAE
:104750008D8E8F919293959697999A9C9D9FA0A2EA
:10476000A3A5A7A8AAACAEB0B2B3B5B7B9BCBEC03A
:10477000C2C5C7C9CCCED1D4D7D9DCDFE2E6E9ECDB
:10478000F0F3F7FAFE0000004FEA400C0CF1807CD9
:10479000BCF17E4F28BF7047B0F1C04000F0AAB80E
:1047A00090EA010F0CEAD11348BF42F480726245CF
:1047B00038BF634507D213F47F0F16D080EA01009B
:1047C00000F00040704710B500F04EF8097EFC3E46
:1047D00000F005B880EA010000F00040704780EA70
:1047E000010000F0004000F085B812F47F0F04BF14
:1047F0000248704780EA010000F07CB80000C07FEA
:1048000041000B0ED3F19E0208D950F400034FEA89
:10481000032323FA02F048BF4042704710B500F06E
:1048200023F800BF49922480002070476FF00042B7
:1048300082EA20007047000010F0004148BF40426B
:10484000B0FA80F310FA03F2C3F19D030BD051EAE2
:10485000C35101EB1220530638BF704700F101002D
:1048600008BF20F0010070470EF1020E2EF0030E7B
:104870005EF8044B244204D44FEA4102B2F17F4F68
:1048800011D84FEA4003B3F17F4F0CD80ED14FEA55
:10489000D07CB2F17F4F0CEB4C0C0CF1020C08BF3A
:1048A0004CEBD17C04E04FF0080C01E04FEAD17CE6
:1048B0000CEB4C0324FA03F404F00704B4F1040CE9
:1048C00006D20EEB840CBDE810404CF0010C6047A2
:1048D000DFE80CF0070802024FF00040A0F580006E
:1048E00010BD0846420018BFD2F1807288BF00F0A8
:1048F000004010BDFF2141EAD050C0057047FCF7D1
:1049000018B9CEC200000000000000000000000046
:104910000000000000001060028C0000FE929292E5
:104920009292FE00000004047E01407E42427E42DC
:104930007E42427E4000B6C8000000000000000039
:10494000000000000000000000000000FC242424FF
:10495000FC252624FC242424040040308F80844C31
:1049600055252525554C80808000BBEB00000000BC
:1049700000000000000000000000000000001060C7
:10498000020CC0082622E23AA222222A06000404CF
:104990007C03001010131212FF1212121000D7C75E
:1049A0000000000000000000000000000000000007
:1049B00000001060028C00F8080808FF080808F8DA
:1049C000000004047E0120632121213F212129339D
:1049D0006000C9CF000000000000000000000000DF
:1049E000000000000000000000000000FF40404008
:1049F0004040400000004040404040407F40404038
:104A0000404040404000CFC20000000000000000D5
:104A1000000000000000000000000202020202028A
:104A2000FE020242820202020200000000000000B8
:104A3000FF000000000106000000CFDE00000000C3
:104A4000000000000000000000000000000000FE68
:104A5000225A8600FE9292929292FE00000000FF7F
:104A600004080700FF4020030C1422414000D6B583
:104A70000000000000000000000000000000000036
:104A80000000008060F80704E4A4A4BFA4A4E40428
:104A90000000010000FF40407F4A4A4A4A4A7F40E6
:104AA0004000CAB10000000000000000000000004B
:104AB00000000000000000FC848484FC0010101042
:104AC0001010FF101000003F1010103F00000106F2
:104AD00040807F000000B6A8000000000000000039
:104AE00000000000000000000000100C444444449A
:104AF00045C64444444444140C008040201E2040D9
:104B0000407F4444444444404000BCE40000000072
:104B1000000000000000000000000000000000F89D
:104B2000010600F0121212F2020202FE000000FF63
:104B30000000001F1111111F0040807F0000B9E22A
:104B40000000000000000000000000000000000065
:104B500000004040424458C0407F40C0504846405A
:104B600040008080402018070000003F4040404047
:104B70007800D5D500000000000000000000000013
:104B800000000000000000FE424242FE0042A29EE1
:104B900082A2C2BE0000806F080828CF00002FC884
:104BA000080828CF0000A1E6000000000000000077
:104BB00000000000000000000000060909E6F80CF3
:104BC000040202020202041E0000000000071F305F
:104BD00020404040404020100000CEC2002244004F
:104BE000C05FD555D55FC000000402090F080F084B
:104BF0000F080F0800B6C80000FE0A8ABEAAABAABA
:104C0000BE8A0A0008070008090A04040A09080005
:104C1000CAAA001122803E2AEA2AEA2A3E8000041B
:104C2000020809080F080F08090800C9CF00000092
:104C30000000FF10101010100000080808080F08EE
:104C4000080808080800CFC20002020202FE021291
:104C50002242820200000000000F0000000001005C
:104C600000CFDE00FF0119E700FF49C9497F80003E
:104C70000F020201000F04010205080000000000FD
:104C800000000000000000000000FC000000000028
:104C900002000000000C020C0200000000000000F6
:104CA00090D0BCD0BC900003000300001824FE4448
:104CB0008C000302070201001824D8B04C800003C6
:104CC00000010201C038E438E000010202010202E2
:104CD000080600000000000000000000000000F8CE
:104CE0000402000000010204000204F800000004B5
:104CF000020100009060F8609000000001000000D8
:104D00002020FC2020000000010000000000000026
:104D100000000806000000002020202020000000E5
:104D20000000000000000000000000020000000081
:104D30000080601C0200040300000000F80404046A
:104D4000F8000102020201000008FC00000000025D
:104D50000302000018844424180003020202020027
:104D600008042424D80001020202010040B088FC9B
:104D700080000000000302003C242424C40001023F
:104D800002020100F824242CC000010202020100EA
:104D90000C04E41C0400000003000000D8242424B8
:104DA000D80001020202010038444444F800000324
:104DB00002020100000010000000000002000000DC
:104DC00000002000000000000600000000205088C5
:104DD00004020000000001029090909090000000FA
:104DE00000000000000204885020000201000000C2
:104DF0001804C4241800000002000000F804E49421
:104E0000F80001020202020000E09CF080000203B0
:104E10000000030204FC2424D80002030202010063
:104E2000F80404040C0001020202010004FC040462
:104E3000F80002030202010004FC24740C000203C7
:104E40000202030004FC24740C00020302000000B0
:104E5000F0080444CC4000010202010004FC2020C0
:104E6000FC040203000003020404FC040400020228
:104E700003020200000404FC04040604040300000E
:104E800004FC24D00C0402030200030204FC04000E
:104E90000000020302020203FC3CC03CFC000300D1
:104EA0000300030004FC30C4FC04020302000300FE
:104EB000F8040404F80001020202010004FC2424A6
:104EC0001800020302000000F8848404F8000102C4
:104ED0000207050004FC2464980002030200030298
:104EE000182424448C000302020201000C04FC0478
:104EF0000C0000020302000004FC0000FC0400019E
:104F000002020100047C80E01C0400000300000099
:104F10001CE03CE01C00000300030000049C609CBB
:104F20000400020300030200041CE01C0400000251
:104F3000030200000C84641C04000203020203004C
:104F40000000FE020200000007040400000E30C052
:104F50000000000000010200000202FE0000000448
:104F6000040700000004020400000000000000002C
:104F700000000000000008080808080800000200FF
:104F800000000000000000000040A0A0C0000001E0
:104F90000202030204FC2020C00000030202010000
:104FA00000C02020600000010202020000C0202496
:104FB000FC0000010202030200C0A0A0C00000012A
:104FC000020202000020F82424040002030202006E
:104FD0000040A0A0602000070A0A0A0404FC202068
:104FE000C0000203020003020020E40000000002EF
:104FF00003020000000020E4000008080807000089
:1050000004FC80E020200203020003020404FC00F0
:105010000000020203020200E020E020C0000300C2
:105020000300030020E02020C0000203020003026E
:1050300000C02020C00000010202010020E020206A
:10504000C000080F0A02010000C02020E00000019B
:10505000020A0F0820E040202000020302000000A6
:105060000060A0A020000002020203000020F8203F
:10507000000000000102020020E00020E00000012A
:105080000202030220E020806020000003010000F3
:105090006080E0806000000300030000206080600A
:1050A000200002030003020020E0208060200808A6
:1050B000070100000020A06020000002030202009F
:1050C000000020DE0200000000070400000000FFD6
:1050D00000000000000F00000002DE2000000004BD
:1050E00007000000020102040402000000000000AA
:1050F00000000000000000000000000000000000B0
:10510000000000F800000000000000333000000044
:1051100000100C06100C060000000000000000004B
:1051200040C07840C0784000043F04043F040400BD
:10513000007088FC08300000001820FF211E0000CD
:10514000F008F000E018000000211C031E211E00E2
:1051500000F00888700000001E2123241927211068
:1051600010160E000000000000000000000000000B
:10517000000000E0180402000000000718204000B2
:1051800000020418E00000000040201807000000A2
:10519000404080F0804040000202010F0102020006
:1051A000000000F0000000000101011F01010100EA
:1051B000000000000000000080B07000000000004F
:1051C00000000000000000000001010101010101D8
:1051D000000000000000000000303000000000006F
:1051E0000000000080601804006018060100000044
:1051F00000E010080810E000000F102020100F0041
:10520000001010F8000000000020203F20200000C7
:10521000007008080888700000302824222130001F
:1052200000300888884830000018202020110E0027
:105230000000C02010F8000000070424243F2400D0
:1052400000F80888880808000019212020110E00A5
:1052500000E0108888180000000F112020110E00B7
:1052600000380808C83808000000003F00000000AF
:105270000070880808887000001C222121221C0070
:1052800000E010080810E0000000312222110F0099
:10529000000000C0C000000000000030300000002E
:1052A000000000800000000000008060000000009E
:1052B00000008040201008000001020408102000B7
:1052C0004040404040404000040404040404040002
:1052D0000008102040800000002010080402010097
:1052E000007048080808F000000000303601000097
:1052F000C030C828E810E0000718272423140B004A
:105300000000C038E0000000203C230202273820C3
:1053100008F8888888700000203F202020110E00A7
:10532000C03008080808380007182020201008009E
:1053300008F808080810E000203F202020100F0087
:1053400008F88888E8081000203F20202320180053
:1053500008F88888E8081000203F200003000000BB
:10536000C03008080838000007182020221E02005C
:1053700008F808000008F808203F210101213F201B
:10538000000808F8080800000020203F2020000046
:1053900000000808F8080800C08080807F00000036
:1053A00008F888C028180800203F2001263820006F
:1053B00008F8080000000000203F202020203000D6
:1053C00008F8F800F8F80800203F003F003F2000F0
:1053D00008F830C00008F808203F200007183F00F8
:1053E000E01008080810E0000F10202020100F0027
:1053F00008F808080808F000203F2101010100001A
:10540000E01008080810E0000F18242438504F005E
:1054100008F8888888887000203F2000030C30201E
:1054200000708808080838000038202121221C005C
:10543000180808F8080818000000203F20000000A5
:1054400008F808000008F808001F202020201F008E
:105450000878880000C83808000007380E010000EE
:10546000F80800F80008F800033C0700073C0300B8
:10547000081868808068180820302C03032C30201E
:105480000838C800C83808000000203F200000008D
:1054900010080808C83808002038262120201800E5
:1054A000000000FE020202000000007F40404000B9
:1054B000000C30C000000000000000010638C000F1
:1054C00000020202FE000000004040407F00000099
:1054D00000000402020204000000000000000000BE
:1054E00000000000000000008080808080808080BC
:1054F00000020204000000000000000000000000A4
:1055000000008080808000000019242222223F2099
:1055100008F8008080000000003F112020110E00DC
:105520000000008080800000000E1120202011006B
:10553000000000808088F800000E112020103F201D
:105540000000808080800000001F222222221300A1
:10555000008080F0888888180020203F20200000EC
:105560000000808080808000006B949494936000A1
:1055700008F8008080800000203F210000203F20AC
:1055800000809898000000000020203F20200000AC
:10559000000000809898000000C08080807F00009C
:1055A00008F8000080808000203F24022D30200079
:1055B000000808F8000000000020203F2020000024
:1055C0008080808080808000203F20003F20003F3E
:1055D0008080008080800000203F210000203F204C
:1055E0000000808080800000001F202020201F00FD
:1055F000808000808000000080FFA12020110E002C
:105600000000008080808000000E112020A0FF801C
:10561000808080008080800020203F2120000100C9
:10562000000080808080800000332424242419001E
:10563000008080E0808000000000001F202000002B
:105640008080000000808000001F202020103F206C
:10565000808080000080808000010E3008060100FC
:1056600080800080008080800F300C030C300F00A1
:1056700000808000808080000020312E0E312000CC
:10568000808080000080808080818E7018060100FC
:1056900000808080808080000021302C222130001A
:1056A00000000000807C020200000000003F40403B
:1056B00000000000FF00000000000000FF000000EC
:1056C0000002027C800000000040403F000000001B
:1056D00000060101020204040000000000000000B6
:1056E00000000000000000000000000000000000BA
:1056F00000000000000000000000000000000000AA
:10570000000000000000000000F0F0F000000000C9
:105710000000000000017F01000000000000000008
:10572000001C1C1C0000000000008060301C8C600D
:10573000301C0C0000000000000000000000000011
:10574000000000000000000000000000000000E079
:105750000000000000E000000086E69F8686868646
:10576000E69F860000011F01010101011F010100E8
:10577000000080C06020F820E0C0000000000307A7
:105780000C18FF70E18100000000070F10107F105F
:105790000F0700008060206080000000E020000013
:1057A0000F3020309F70DC371030C0000000100E2A
:1057B00003000718101807000000C02020E0C000F8
:1057C0000000000080E01F38E88703C43C040000AC
:1057D000070F1810100B070D1010080000808C4CDC
:1057E0003800000000000000000000000000000081
:1057F00000000000000000000000000000000000A9
:1058000000000000000080E03008040000000000FC
:1058100000FEFF0100000000000000000000030F78
:105820001820400000040830E08000000000000064
:105830000000000001FFFE000000000000402018F2
:105840000F03000000000000000000000000C00086
:1058500000000000004266663C18FF183C66664285
:105860000000000000000300000000000000000035
:105870000000800000000000001010101010FF1049
:1058800010101010000000000000030000000000D5
:105890000000000000000000000000000000000008
:1058A000000000000000000000808C4C3800000068
:1058B00000000000000000000000000000000000E8
:1058C0000010101010101010101010000000000038
:1058D00000000000000000000000000000000000C8
:1058E00000000000000000000000000000000000B8
:1058F00000001C1C1C000000000000000000000054
:1059000000000000E0380C000000000080701C0364
:10591000000000000060380E0100000000000000E0
:10592000000080C060202060C080000000FEFF01F9
:105930000000000001FFFE000001070E1810101803
:105940000E0701000000808080C0E0000000000021
:105950000000000000FFFF00000000000000101029
:10596000101F1F1010100000008040202020206019
:10597000C080000000030300804020381F070000A3
:10598000001C1A1918181818181F00000080C020D1
:10599000202060C080000000000303001010182FBA
:1059A000E780000000070F10101010180F0700000C
:1059B000000000000000C0E0F000000000C0B0885F
:1059C000868180FFFF808000000000000010101F13
:1059D0001F1010000000E060606060606060000008
:1059E00000003F1008080818F0E0000000070B1046
:1059F0001010101C0F030000000080C04020202069
:105A0000E0C0000000FCFF211008080818F0E000CA
:105A10000001070C18101010080F03000000C0E070
:105A20006060606060E06000000003000000E0185B
:105A30000700000000000000001F1F000000000021
:105A40000080C0602020202060C080000087EF2CF4
:105A50001818303068CF830000070F08101010109E
:105A6000180F07000000C0C020202020C0800000C8
:105A7000001F3F604040402010FFFE0000000C1C53
:105A8000101010080F0300000000000000000000CC
:105A90000000000000000000000E0E0E00000000DC
:105AA00000000000001C1C1C0000000000000000A2
:105AB000000000000000000000000000000C0C00CE
:105AC0000000000000000000005838000000000046
:105AD000000000000000008040201000000010289E
